:020000040800F2
:10000000D81C002035410108ED930008E3A0010849
:10001000EF930008F3930008F79300080000000036
:10002000000000000000000000000000474101083F
:10003000FB930008000000006BA001080595000874
:100040004F4101084F4101084F410108495700083D
:100050004F4101084F410108EF9200080193000849
:100060001393000825930008379300084F410108B7
:100070004F4101084F4101084F4101084F4101081C
:100080004F4101084F4101084F4101084F4101080C
:100090004F4101084F4101084F4101084F410108FC
:1000A0004F4101084F4101084F4101084F410108EC
:1000B0004F4101084F4101084F4101084F410108DC
:1000C0004F4101084F4101084F4101084F410108CC
:1000D0004F410108D38C0008538300084F410108A9
:1000E000499300084F4101084F4101084F41010861
:1000F0004F4101084F4101084F4101084F4101089C
:100100004F4101084F410108290700084F410108EC
:100110004F4101084F4101084F4101084F4101087B
:100120004F4101084F4101084F4101084F4101086B
:10013000DFF80CD020F090F9004800476942010830
:10014000D81C002000BFFEE710B504F0D3FC10BDA2
:1001500070B50446002604F0F0FC2546E11704EBD8
:1001600011610912A02202EB4101C8B204F097FD0F
:1001700004F024FDE11704EB11610912A4EB012145
:10018000C8B204F08CFD04F019FD04F0D6FCA120E7
:1001900004F085FD04F012FD002004F0AEFD0646DB
:1001A00004F0EBFC304670BD70B504460E4604F01A
:1001B000C4FC2546E11704EB11610912A02202EBF1
:1001C0004101C8B204F06BFD04F0F8FCE11704EB48
:1001D00011610912A4EB0121C8B204F060FD04F022
:1001E000EDFC304604F05BFD04F0E8FC04F0C5FCD7
:1001F0000A2004F088FF70BD2DE9F04105460E4647
:100200001746002409E0E20026FA02F2D1B22A19C8
:1002100090B2FFF7C9FF601CC4B2BC42F3DBBDE87B
:10022000F0812DE9F04107460C460026002509E043
:1002300036023919491B491E88B2FFF789FF064467
:10024000681CC5B2A542F3DB3046BDE8F08110B5AD
:10025000FF20FFF77DFF0446552C01D1002010BD83
:100260005521FF20FFF7A0FFFF20FFF771FF044695
:10027000552C01D10020F2E70120F0E770B50646C9
:100280000C46154608E03046721C96B2FFF760FF38
:1002900004F8010B681E85B2002DF4D170BD70B555
:1002A00005460C46164606E021782846FFF77CFFF7
:1002B000681C85B2641C301EA6F101018EB2F3D118
:1002C00070BD000000B585B000BF2348806940F0D4
:1002D0000800214988610846806900F00800009004
:1002E00000BF00BF881501900120029003900320F9
:1002F000049001A9194809F079FF00224FF4807198
:1003000016480AF0A2F9012015490860322004F0CD
:10031000FAFE00201349C1F8A00105B000BD10B5D8
:10032000322413E001200E49086000200D49C1F875
:100330009401642018F056FF00200949086001204C
:100340000849C1F89401142018F04CFF201EA4F1B4
:100350000101CCB2E6D110BD00100240000C0140FA
:10036000A08121420080214200B585B0002001908B
:1003700002900390049000BF9548806940F04000CF
:10038000934988610846806900F04000009000BFF2
:1003900000BF00BF0846806940F0800088610846C1
:1003A000806900F08000009000BF00BF00BF0846D9
:1003B000806940F0040088610846806900F004000C
:1003C000009000BF00BF00BF0846806940F00800F1
:1003D00088610846806900F00800009000BF00BFF7
:1003E000002220217B480AF030F9002220217A489F
:1003F0000AF02BF920200190012002900390049034
:1004000001A9744809F0F2FE202001900120029019
:1004100003900220049001A96F4809F0E7FE002034
:100420006E4908606E49C1F89401012004F06BFE2A
:1004300001206A4908606A49C1F89401002005B0AA
:1004400000BD10B504460120644908606449C1F844
:100450009401C82018F0C6FE002060490860604979
:10046000C1F89401012018F0BDFE10BD5D4908607F
:100470005D490988491C5C4A118011460988594A1E
:100480001268914206D20121544A1160544AC2F8BE
:10049000941107E00021544A1180504A1160504ADB
:1004A000C2F8941170471CB50446012C04D0022CEC
:1004B0002FD0032C72D159E017F0E2FF4B480068AF
:1004C00008B9012000E00020484908604448D0F8FD
:1004D000940168B100204649086046A010210B46EF
:1004E000C822CDE90010EC21002004F0C7F80DE08F
:1004F0004FF478403E49086045A010210B46C822C1
:10050000CDE90010EC21002004F0B8F817F0C6FF88
:100510005BE017F0B5FF3548006808B9012000E03E
:100520000020324908602E48D0F8940168B10020BC
:100530002F4908603DA010210B46C822CDE90010CC
:10054000FE21002004F09AF80DE04FF4784028498D
:1005500008603DA010210B46C822CDE90010FE2105
:10056000002004F08BF817F099FF2EE017F088FFB9
:100570001A48006898B14FF478401D49086000207F
:100580001649086037A010210B46C822CDE900109B
:100590004FF48871002004F071F811E013E000209E
:1005A0001349086001200D49086035A010210B4651
:1005B000C822CDE900104FF48871002004F05EF8E5
:1005C00017F06CFF01E0002400BF00BF1CBD00005D
:1005D0000010024000180140000C01409401234229
:1005E000008021420000002004000020948121426C
:1005F0000C000020426564726F6F6D202020204C3B
:10060000696768743A20202020204F464600000089
:10061000426564726F6F6D202020204C696768749A
:100620003A20202020204F4E200000004C6976699F
:100630006E67726F6F6D204C696768743A20202076
:1006400020204F46460000004C6976696E67726F45
:100650006F6D204C696768743A20202020204F4E2F
:1006600020000000436F727269646F722020204C7A
:10067000696768743A20202020204F4E2000000037
:10068000436F727269646F722020204C69676874CE
:100690003A20202020204F464600000070B5054635
:1006A0000C463348334908600846446000218160A5
:1006B000C56001610EF082FD2E480EF01AFE00BFEB
:1006C0002C480068006A41F21111084068B92948B5
:1006D0000068006A8910084038B926480068006838
:1006E00020F0010023490968086000BF70BD38B5DB
:1006F00004461F492068884215D100BF1E48C069C2
:1007000040F008001C49C8610846C06900F00800B4
:10071000009000BF00BF0322012132200AF06EFFCB
:1007200032200AF0A9FF38BD6FF0010011490968B5
:1007300008614FF400401149088001201049086009
:1007400000BF0C480068006A41F21111084068B906
:1007500008480068006A8910084038B905480068F0
:10076000006820F0010003490968086000BF704775
:10077000000C00406C0300200010024078000020B4
:100780009481214210B5052000F06EF910BD00B52E
:1007900085B000BFA048806940F008009E4988618C
:1007A0000846806900F00800009000BF00BF00BF4D
:1007B0000846806940F0800088610846806900F042
:1007C0008000009000BF00BF022001900120029035
:1007D00003900320049001A9904809F007FD4FF40D
:1007E0000070019001A98E4809F000FD01208D499B
:1007F00008608D49C1F8A40105B000BD10B5884856
:10080000001D006820F0F0008549091D08600846B9
:10081000006840F030000860012084490860844985
:10082000C1F884011E2000F01FF900207F490860F4
:10083000FFF7A8FF00207E49C1F8840110BD10B564
:100840007748001D006820F0F0007549091D086018
:100850000846006840F030000860012071490860D7
:100860001E2000F001F900206F49C1F8A401FFF734
:1008700089FF01206D49086010BD10B5002468484B
:10088000001D006820F0F0006549091D0860084659
:10089000006840F0800008600120644908606449F5
:1008A000C1F88401FFF76EFF09E0601CC4B2FA2CA6
:1008B00003DDFFF7C4FF012010BDFFF763FF5B48B6
:1008C000803800680028F0D15649086000BFF3E77F
:1008D00010B50020534908605148001D006820F001
:1008E000F0004F49091D08600846006840F03000DC
:1008F0000860FFF747FF00204B49C1F8A401FFF74C
:1009000041FF012047490860FFF73CFF00204849AC
:10091000C1F8840110BD10B500204249086040486C
:10092000001D006820F0F0003D49091D08600846E0
:10093000006840F030000860FFF724FF01203A49CA
:10094000C1F8A401FFF71EFF012036490860FFF738
:1009500019FF00203649C1F8840110BD70B5044666
:100960002F48001D006820F0F0002D49091D086087
:100970000846006840F030000860002029490860FF
:10098000FFF700FF002511E0E00928490860600634
:10099000040E01202649C1F88401FFF7F3FE002070
:1009A00020490860FFF7EEFE681CC5B2082DEBDB9E
:1009B00070BD70B5054600241948001D006820F080
:1009C000F0001749091D08600846006840F08000E3
:1009D00008601E2000F048F8002612E000201149AF
:1009E0000860FFF7CFFE01201149C1F884016006BD
:1009F000040E0E488038006808B1601CC4B2701C38
:100A0000C6B2082EEADB15B9FFF785FF01E0FFF754
:100A10005FFF204670BD000000100240000C014046
:100A2000001C01408481214200802342A481234292
:100A30000080214210B500BF0BF03CFC04460020B2
:100A40000AF0F2FE2C48B4FBF0F02C49087008467E
:100A5000007800EB4001C1EBC0104FF6FF7101EAD6
:100A6000C0002749088010BD0146244A12784A4335
:100A70004FF0E0235A6100229A611A46126942F04F
:100A800001021A6100BF4FF0E022106900F001027C
:100A90001AB100F48032002AF5D04FF0E02212693A
:100AA00022F001024FF0E0231A6100229A617047A0
:100AB0000146134A12884A434FF0E0235A6100224C
:100AC0009A611A46126942F001021A6100BF4FF0A2
:100AD000E022106900F001021AB100F48032002A0D
:100AE000F5D04FF0E022126922F001024FF0E0232E
:100AF0001A6100229A61704700127A0006000020F5
:100B0000080000202DE9F04105460E4617464FF03B
:100B10000008FFF773FE7020FFF720FFFFF7ADFE20
:100B2000E8B2FFF71BFFFFF7A8FE00240BE0305DE3
:100B3000FFF714FFFFF7A1FE8046B8F1000F00D0C9
:100B400003E0601CC4B2BC42F1DB00BFFFF777FEDC
:100B50004046BDE8F0812DE9F04106460F461546B6
:100B6000FFF74CFE7020FFF7F9FEFFF786FEF0B2AC
:100B7000FFF7F4FEFFF781FEFFF740FE7120FFF75D
:100B8000EDFEFFF77AFE00240BE0691EA14201D0C2
:100B9000012100E000210846FFF70BFF3855601CDB
:100BA000C4B2AC42F1DBFFF74AFEBDE8F08100B50C
:100BB00087B000BF9748806940F080009549886100
:100BC0000846806900F08000019000BF00BFC81493
:100BD00002900120039004900320059002A98E4802
:100BE00009F004FB4FF4806002900020039002A9FA
:100BF000894809F0FBFAFFF7CAFD00208749086021
:100C00001420FFF755FF01208549C1F8AC013220BF
:100C1000FFF74EFF00208DF81800012206A9FFF70C
:100C200071FF012206A9A420FFF76CFF16208DF8A2
:100C30001800012206A98020FFF764FF0C208DF820
:100C40001800012206A98820FFF75CFF022206A9EE
:100C5000A120FFF780FF9DF8180030280FD19DF8E4
:100C6000190003280BD19DF819009DF8182000EBFE
:100C700002216CA01FF08EFC002007B000BD0120F7
:100C8000FBE771B581B00024002669480078401C5C
:100C900067490870084600780A2190FBF1F201FBD1
:100CA000120018B1624800780A2866DA012201A908
:100CB0000220FFF750FF9DF8040000F00F0000280D
:100CC0007ED09DF8040000F00F00062878DA9DF829
:100CD000040000F00F01FF208840C5B2E843C0B215
:100CE00040F0C000534981F8200000245AE05148E8
:100CF00090F820000121A1400840E8B34E4931F8A6
:100D0000140004226946FFF726FF4A4890F8300095
:100D100000F00100C0B19DF801009DF8001001F045
:100D20000F0100EB01204349163121F814009DF812
:100D300003009DF8021001F00F0100EB01213D4876
:100D40000C3020F814101DE09DF801009DF80010F3
:100D500001F00F0100EB0120C0F5F07081B23548C1
:100D60000C3020F814109DF803009DF8021001F0DB
:100D70000F0100EB012101E012E021E02D481630C7
:100D800020F814109DF8000000F0F000802807D033
:100D900000212848163020F814100A3820F81410C2
:100DA000601CC4B2052CA2DB01262248808920B930
:100DB0002048C08A08B90020019000201C49087012
:100DC0009DF8040000F01F00D0B91A4890F82000E8
:100DD00000F0800040B1174890F8200020F080001B
:100DE000144981F820000BE04FF6FF70114988810B
:100DF000C882084690F8200000F0E00081F820004A
:100E00000B480078F02802DD0A20094908703046B6
:100E10007CBD000000100240001C0140AC81234258
:100E2000008023424354502049443A25780D0A005B
:100E30000A00002040000020180F02082DE9F041B0
:100E400004460E4617464FF00008FFF7D7FC28204F
:100E5000FFF784FDFFF711FD2012FFF77FFDFFF77D
:100E60000CFDE0B2FFF77AFDFFF707FD00250BE070
:100E7000705DFFF773FDFFF700FD8046B8F1000FCE
:100E800000D003E0681CC5B2BD42F1DB00BFFFF734
:100E9000D6FC4046BDE8F08138B505460024002068
:100EA0008DF800008DF8015000BF09E09DF80000AA
:100EB000E249095D0844C0B28DF80000601CC4B26C
:100EC000B82CF3D39DF80000C043401CC0B28DF88D
:100ED0000000B822D94948F24700FFF7AFFF0222CD
:100EE000694648F2FF00FFF7A9FF002038BD2DE951
:100EF000F04105460F461646FFF780FC2820FFF715
:100F00002DFDFFF7BAFC2812FFF728FDFFF7B5FC0F
:100F1000E8B2FFF723FDFFF7B0FCFFF76FFC2920D5
:100F2000FFF71CFDFFF7A9FC00240BE0711EA14296
:100F300001D0012100E000210846FFF73AFD3855B5
:100F4000601CC4B2B442F1DBFFF779FCBDE8F0816C
:100F500000B587B000BFBA48806940F08000B8494A
:100F600088610846806900F08000009000BF00BFE3
:100F7000C81401900120029003900320049001A95D
:100F8000B04809F033F94FF48060019000200290DE
:100F900001A9AC4809F02AF9FFF7F9FB0020AA499A
:100FA00008600A20FFF784FD0120A849C1F8AC01C0
:100FB0000A20FFF77DFD4FF480600190022003902E
:100FC0000020029001A99F4809F010F96420FFF762
:100FD0006FFD042205A948F24010FFF788FF0020AA
:100FE0008DF8180005A99AA01FF0D4FA9BA105A8B6
:100FF0001EF031FD48BB02208DF81400012205A926
:1010000048F24000FFF71AFF012205A948F2470005
:10101000FFF76DFF9DF81400602807DA9DF81410A3
:1010200090A01FF0B7FA0120FFF736FF0A20FFF764
:101030003FFD00208DF81400012205A948F2400070
:10104000FFF7FCFE002007B000BD0120FBE771B5F3
:1010500083B00024002688480078401C8649087028
:10106000084600780A2190FBF1F201FB120018B14A
:10107000814800780A287CDA012203A948F24E1040
:10108000FFF735FF9DF80C0000F0800068B19DF877
:101090000C0000F00F00062807DA00200190012262
:1010A00001A948F24E10FFF7C9FE9DF80C0000F0B0
:1010B0000F0000285DD09DF80C0000F00F000628FE
:1010C000D9DA9DF80C0000F00F01FF208840C0B273
:1010D00001906A4890F820509DF80400C043C0B2C7
:1010E00040F0C000654981F820000846818981826E
:1010F000C18AC183002446E0604890F820000121A5
:10110000A140084020B35E4931F81400042202A92E
:10111000FFF7EDFE594890F8300000F00100C0B133
:101120009DF808009DF8091000EB012081B253489A
:10113000163020F814109DF80A009DF80B1000EBF3
:101140000120C0F5487081B24C480C3020F81410D2
:1011500017E09DF808009DF8091000EB012081B20E
:1011600046480C3020F814109DF80A009DF80B102A
:1011700000E038E000EB012081B24048163020F852
:101180001410601CC4B2052CB6DB01263B488089D4
:101190003C490988884205DC3848C08A3949498871
:1011A00088421DDD9DF80C0000F00F0001280ADDCB
:1011B0003248C089314988810846008BC8820020A6
:1011C0002D4908700FE02D48808A2C4988810846F7
:1011D000C08BC88280200390084680F8205002E02F
:1011E0000020254908709DF80C0000F08F00802831
:1011F0001AD1224890F8200000F0800040B11F482A
:1012000090F8200020F080001C4981F820000BE0BD
:101210004FF6FF7019498881C882084690F820006F
:1012200000F0E00081F8200013480078F02802DD8B
:101230000A2011490870304604B070BD220F020820
:1012400000100240001C0140AC8123420080234278
:101250004354502049443A25730D0A00393134373C
:101260000000000044656661756C74205665723A32
:1012700025640D0A000000000B0000204000002043
:10128000DA0F0208F003002001B5BDF8000000905D
:10129000BDF80000FE49088008BD01B5BDF800009A
:1012A0000090BDF80000FA49891C088008BD08B507
:1012B000F748801C00880090BDF8000008BDF44A83
:1012C0001080921C1180704710B504462046FFF72D
:1012D000DBFF052003F034FFFFF7E9FF10BDED4809
:1012E0000089EB4908807047E949891C08807047EC
:1012F00030B5014601F01F04C1F34513CA0AE502E7
:1013000005EB43151544A8B230BD00BF011EA0F186
:101310000102D0B2FAD1704710B502460C46DD4842
:10132000808849F24131884205D0DA48808845F208
:101330001031884214D1D7494889FFF7A5FF101210
:10134000FFF7ABFFD0B2FFF7A8FFD2498889FFF7BC
:101350009BFF2012FFF7A1FFE0B2FFF79EFF73E0B3
:10136000CC48808841F66311884247D1C9488079CA
:10137000A8B9C8480088401E801A82B2C549488969
:10138000FFF782FF0020FFF788FF0020FFF785FFAF
:101390001012FFF782FFD0B2FFF77FFF16E0BD49C2
:1013A0004889FFF771FF1012FFF777FFD0B2FFF700
:1013B00074FFB8490988491EC1F30F20FFF76DFF7C
:1013C000B4490978491EC8B2FFF767FFB149888957
:1013D000FFF75AFF2012FFF760FFE0B2FFF75DFF53
:1013E000AC494988491EC1F30F20FFF756FFA949B0
:1013F0008978491EC8B2FFF750FF25E0A5488088CC
:1014000045F2105188421FD1A2494889FFF73CFF9D
:101410001012FFF742FF9F494989491C88B2FFF724
:1014200033FFD0B2FFF739FF9A498889FFF72CFFC5
:101430002012FFF732FF97498989491C88B2FFF7CC
:1014400023FFE0B2FFF729FF10BD2DE9F04105466B
:101450000E4600240027A0468E480088A84203DDDF
:101460008C484088B04202DC0020BDE8F081314663
:101470002846FFF751FF8748808849F2413188426A
:101480000BD08448808845F21031884205D08148CD
:10149000808841F66311884203D12E20FFF7F4FEC5
:1014A00009E07C48808845F21051884203D14FF40E
:1014B0003850FFF7E9FEFFF7FAFE044675488088CA
:1014C00041F66311884201D12046CEE70220FFF7A2
:1014D0001CFFFFF7ECFE04460220FFF716FFFFF7A4
:1014E000E6FE8046E7B24FF6FF7000EA0727E012FB
:1014F000C002B91240EA411040EAE820B5E700B561
:101500006448808849F2413188420BD06148808824
:1015100045F21031884205D05E48808841F663115B
:10152000884203D12920FFF7AFFE09E0594880889F
:1015300045F21051884203D14FF42450FFF7A4FE26
:1015400000BD00B55348808849F2413188420BD034
:101550005048808845F21031884205D04D48808837
:1015600041F66311884203D12820FFF78DFE09E080
:101570004848808845F21051884203D14FF42050EA
:10158000FFF782FE00BDF0B5054600240027414864
:101590008079012805D13F48808841F6631188424F
:1015A00008D13C488079F0B93A48808841F6631107
:1015B000884218D1082D15D2DFE805F00406080A84
:1015C0000C0E101206250DE007250BE0042509E09E
:1015D000052507E0012505E0002503E0032501E0DE
:1015E000022500BF00BF2B48808849F24131884264
:1015F00011D02848808845F2103188420BD0254808
:10160000808845F21051884205D02248808841F6F2
:10161000631188427ED1082D1CD2DFE805F0040654
:10162000090C0F12151800BF14E044F0800411E0FB
:1016300044F040040EE044F0C0040BE044F0200409
:1016400008E044F0600405E044F0A00402E044F047
:10165000E00400BF00BF0F48808845F21051884267
:1016600002D14FF4585700E036270A48808845F2E7
:101670001031884212D00748808845F210518842C4
:101680000CD00448808841F66311884206D003E0FC
:10169000FE07006CF003002044F0080421463846A1
:1016A000FFF70DFEFE48808841F6631188421DD089
:1016B00004F0200068B1FA480088F9494988884256
:1016C00014DAF74806884088F549088008464680BD
:1016D0000CE0F3480088F2494988884206DDF0486A
:1016E00006884088EE49088008464680EC48808895
:1016F00045F21051884254D1E9494889FFF7C4FDA9
:101700000020FFF7CAFDE6494989491C88B2FFF766
:10171000BBFD00E073E00020FFF7BFFDE049498911
:10172000891C88B2FFF7B0FDDD490988491EC1F365
:101730000F20FFF7B2FDDA494989C91C88B2FFF7CB
:10174000A3FDD7490978491EC8B2FFF7A6FDD449C1
:101750008889FFF799FD0020FFF79FFDD04989890F
:10176000491C88B2FFF790FD0020FFF796FDCC4999
:101770008989891C88B2FFF787FDC9494988491EB4
:10178000C1F30F20FFF789FDC5498989C91C88B2BB
:10179000FFF77AFDC2498978491EC8B2FFF77DFD7F
:1017A0002DE0BF494889FFF76FFD0020FFF775FD69
:1017B0000020FFF772FDBA490988491EC1F30F20C6
:1017C000FFF76BFDB6490978491EC8B2FFF765FD02
:1017D000B3498889FFF758FD0020FFF75EFD002020
:1017E000FFF75BFDAE494988491EC1F30F20FFF7A3
:1017F00054FDAB498978491EC8B2FFF74EFDF0BDD4
:1018000030B504460D4629462046FFF785FDFFF713
:1018100066FDA4480088A449088030BD30B5044660
:101820000D469F48808849F24131884205D09C4846
:10183000808845F21031884214D199494889FFF7D0
:1018400023FD2012FFF729FDE0B2FFF726FD9449A2
:101850008889FFF719FD2812FFF71FFDE8B2FFF78F
:101860001CFD54E08E48808845F21051884220D1FA
:101870008B494889FFF708FD2012FFF70EFD8849C4
:101880004989491C88B2FFF7FFFCE0B2FFF705FD6C
:1018900083498889FFF7F8FC2812FFF7FEFC80498E
:1018A0008989491C88B2FFF7EFFCE8B2FFF7F5FC25
:1018B0002DE07B48808841F66311884227D1784823
:1018C000807920B976480088401E001B84B2744994
:1018D0004889FFF7D9FC2012FFF7DFFCE0B2FFF7E1
:1018E000DCFC2012FFF7D9FCE0B2FFF7D6FC6C4914
:1018F0008889FFF7C9FC2812FFF7CFFCE8B2FFF791
:10190000CCFC2812FFF7C9FCE8B2FFF7C6FC64481C
:1019100000896549891E0880891C0A8030BD2DE92F
:10192000F0470446BE20FFF7AFFC0520FFF7B5FCEB
:1019300020461EF0D0FA07464FF066325B4B1EF091
:1019400039FA05461EF020FB1FFA80F94846FFF7DA
:10195000A4FC0120FFF7A1FCFF20FFF79EFC002064
:10196000FFF79BFC0020FFF798FCBDE8F08710B55F
:1019700004464B488471002C51D1F020484908801E
:101980004FF4A07048800846808849F2413188426F
:1019900005D04348808845F21031884214D12C206C
:1019A0003F4908812A2048812B2088810846808869
:1019B00045F21031884206D14FF4A07038490880B2
:1019C0004FF4F070488084E03548808845F210512B
:1019D000884210D14FF43050314908814FF42850DB
:1019E00048814FF42C5088814FF4F07008804FF4F8
:1019F000487048806DE02A48808841F6631188422B
:101A000067D12C20264908812B2048812A208881F3
:101A10004FF4F07008804FF44870488059E04FF45C
:101A2000A0701F490880F02048800846808849F24D
:101A30004131884205D01A48808845F210318842E9
:101A400007D12C20164908812A2048812B20888123
:101A500032E01348808845F21051884210D14FF48B
:101A600030500F4908814FF4285048814FF42C50D2
:101A700088814FF4487008804FF4F07048801BE074
:101A80000748808841F66311884215D12C2004490B
:101A900008812A2048812B2088814FF4487007E074
:101AA000F00300200C0000200008006C6666044073
:101AB00008804FF4F0704880FE48808845F210316D
:101AC000884206D14FF4F070FA4908804FF4A070B4
:101AD00048800020FFF757FD10BD2DE9F041044676
:101AE0000D461E46A018401E87B2A819401E1FFAB8
:101AF00080F8F048808849F2413188420FD0ED48A3
:101B0000808845F21031884209D0EA48807901285E
:101B100028D1E848808841F66311884222D1E549FE
:101B20004889FFF7B1FB2012FFF7B7FBE0B2FFF7E0
:101B3000B4FB3812FFF7B1FBF8B2FFF7AEFBDD499B
:101B40008889FFF7A1FB2812FFF7A7FBE8B2FFF790
:101B5000A4FB4FEA2820FFF7A0FB08F0FF00FFF7E7
:101B60009CFB7FE0D348808841F6631188422DD1E9
:101B7000D0480088801A001B84B2A819401E86B283
:101B8000CC494889FFF780FB2012FFF786FBE0B2C3
:101B9000FFF783FBA118491EC1F30F20FFF77DFB60
:101BA000A118491EC8B2FFF778FBC2498889FFF720
:101BB0006BFB2812FFF771FBE8B2FFF76EFB3012E8
:101BC000FFF76BFBF0B2FFF768FB4BE0B94880888A
:101BD00045F21051884245D1B6494889FFF754FB78
:101BE0002012FFF75AFBB3494989491C88B2FFF715
:101BF0004BFBE0B2FFF751FBAE494989891C88B223
:101C0000FFF742FB3812FFF748FBAA494989C91C74
:101C100088B2FFF739FBF8B2FFF73FFBA549888987
:101C2000FFF732FB2812FFF738FBA2498989491CCC
:101C300088B2FFF729FBE8B2FFF72FFB9D4989899E
:101C4000891C88B2FFF720FB4FEA2820FFF725FB0D
:101C500098498989C91C88B2FFF716FB08F0FF0074
:101C6000FFF71BFBBDE8F08110B586B0044600BF4E
:101C70009148406940F480708F4948610846406946
:101C800000F48070019000BF00BF00BF084680696B
:101C900040F0200088610846806900F02000019033
:101CA00000BF00BF00BF0846806940F04000886167
:101CB0000846806900F04000019000BF00BF00BFEF
:101CC0000846806940F4807088610846806900F4A5
:101CD0008070019000BF00BF4CF233700290022070
:101CE0000390012004900320059002A9734808F096
:101CF0007DFA4FF68070029002A9714808F076FADA
:101D000041F20100029002A96E4808F06FFA06B095
:101D100010BD70B5044600266648058840884543D6
:101D200000210846FFF7F8FAFFF7D9FA00BF02E0F2
:101D300065490C80761CAE42FAD370BD00B593B0F5
:101D400000BF5D48806940F008005B498861084633
:101D5000806900F00800009000BF00BF01200F90D4
:101D600010901190032012900FA9584808F03EFAE5
:101D70004FF0204056490860564848600620886069
:101D800000215348C160016110214161002181613E
:101D9000C16141624FF4805181620021C1624FF400
:101DA0008041016300214163816306200890002087
:101DB00009901A200A9000200E90049003200190B0
:101DC00000200290062003900020079001AA08A995
:101DD0003F4811F0F0FF322003F095F9D320FFF7D0
:101DE00053FAFFF764FA33498880FFF760FA314904
:101DF0008880FFF75CFA2F498880084680884FF674
:101E0000FF7101EA00202B498880FFF750FA294929
:101E100089880843274988800846808849F24131EB
:101E200088427DD0D420FFF72FFAFFF740FA2149EE
:101E30008880FFF73CFA1F498880FFF738FA1D4970
:101E40008880084680884FF6FF7101EA0020194912
:101E50008880FFF72CFA174989880843154988803C
:101E60000846808845F21031884269D04FF45A40C4
:101E7000FFF70AFAFFF71BFA0E4988804FF45B4020
:101E8000FFF702FAFFF713FA0A49888008468088AC
:101E90004FF6FF7101EA0020064988804FF45C404C
:101EA000FFF7F2F9FFF703FA02498988084301496D
:101EB000888011E0F003002000100240001401406F
:101EC00000180140002001400008006C000C014097
:101ED000AC030020040100A008468088B0F5004F44
:101EE00002D145F210508880FE48808845F210519A
:101EF000884225D0A120FFF7C7F9FFF7D8F9F949A3
:101F00008880FFF7D4F9F7498880084680884FF623
:101F1000FF7101EA0020F3498880FFF7C8F900E06B
:101F20000EE0F04989880843EE4988800846808899
:101F300045F26171884203D141F66310E949888016
:101F4000E8488188E8A01EF025FBE648808849F231
:101F5000413188427ED1CF20FFF796F90020FFF76C
:101F60009CF9C120FFF799F93020FFF796F9ED2091
:101F7000FFF78AF96420FFF790F90320FFF78DF946
:101F80001220FFF78AF98120FFF787F9E820FFF791
:101F90007BF98520FFF781F91020FFF77EF97A2081
:101FA000FFF77BF9CB20FFF76FF93920FFF775F9C1
:101FB0002C20FFF772F90020FFF76FF93420FFF7AC
:101FC0006CF90220FFF769F9F720FFF75DF920208F
:101FD000FFF763F9EA20FFF757F90020FFF75DF9F3
:101FE0000020FFF75AF9C020FFF74EF91B20FFF73A
:101FF00054F9C120FFF748F90120FFF74EF9C52039
:10200000FFF742F93020FFF748F93020FFF745F994
:10201000C720FFF739F9B720FFF73FF93620FFF760
:1020200033F94820FFF739F93A20FFF72DF9552009
:10203000FFF733F9B120FFF727F90020FFF72DF95B
:102040001A20FFF72AF9B620FFF71EF90A20FFF73A
:1020500024F900E097E0A220FFF71FF9F220FFF734
:1020600013F90020FFF719F92620FFF70DF90120D9
:10207000FFF713F9E020FFF707F90F20FFF70DF93D
:102080002A20FFF70AF92820FFF707F90820FFF7B1
:1020900004F90E20FFF701F90820FFF7FEF854209D
:1020A000FFF7FBF8A920FFF7F8F84320FFF7F5F852
:1020B0000A20FFF7F2F80F20FFF7EFF80020FFF7F4
:1020C000ECF80020FFF7E9F80020FFF7E6F8002021
:1020D000FFF7E3F8E120FFF7D7F80020FFF7DDF87E
:1020E0001520FFF7DAF81720FFF7D7F80720FFF7DA
:1020F000D4F81120FFF7D1F80620FFF7CEF82B20F7
:10210000FFF7CBF85620FFF7C8F83C20FFF7C5F8DB
:102110000520FFF7C2F81020FFF7BFF80F20FFF7E8
:10212000BCF83F20FFF7B9F83F20FFF7B6F80F20C3
:10213000FFF7B3F82B20FFF7A7F80020FFF7ADF863
:102140000020FFF7AAF80120FFF7A7F83F20FFF7CC
:10215000A4F82A20FFF798F80020FFF79EF8002047
:10216000FFF79BF80020FFF798F8EF20FFF795F8AE
:102170001120FFF789F8782002F0C5FF2920FFF72A
:1021800083F801F0D4BF5748808845F21031884267
:1021900040F08587ED20FFF777F80120FFF77DF805
:1021A000FE20FFF77AF8EE20FFF76EF8DE20FFF74B
:1021B00074F82120FFF771F8F120FFF765F801208E
:1021C000FFF76BF8DF20FFF75FF81020FFF765F8E7
:1021D000C420FFF759F88F20FFF75FF8C620FFF7FC
:1021E00053F80020FFF759F8E220FFF756F8E220F5
:1021F000FFF753F8E220FFF750F8BF20FFF744F84D
:10220000AA20FFF74AF8B020FFF73EF80D20FFF7AD
:1022100044F80020FFF741F80D20FFF73EF80020BA
:10222000FFF73BF81120FFF738F80020FFF735F8EB
:102230001920FFF732F80020FFF72FF82120FFF7D1
:102240002CF80020FFF729F82D20FFF726F80020B2
:10225000FFF723F83D20FFF720F80020FFF71DF8D7
:102260005D20FFF71AF80020FFF717F85D20FFF751
:1022700014F80020FFF711F8B120FFF705F88020CF
:10228000FFF70BF80020FFF708F88B20FFF705F8A1
:102290000020FFF702F89620FEF7FFFF0020FEF770
:1022A000FCFFB220FEF7F0FF0020FEF7F6FF002053
:1022B000FEF7F3FF0220FEF7F0FF0020FEF7EDFF30
:1022C0000320FEF7EAFF0020FEF7E7FFB320FEF74A
:1022D000DBFF0020FEF7E1FF0020FEF7DEFF00201D
:1022E0000AE00000F0030020204C43442049443A17
:1022F00025780D0A00000000FEF7CFFF0020FEF752
:10230000CCFF0020FEF7C9FF0020FEF7C6FF00202B
:10231000FEF7C3FF0020FEF7C0FF0020FEF7BDFF61
:102320000020FEF7BAFF0020FEF7B7FF0020FEF7FF
:10233000B4FF0020FEF7B1FF0020FEF7AEFF002043
:10234000FEF7ABFF0020FEF7A8FF0020FEF7A5FF79
:102350000020FEF7A2FF0020FEF79FFF0020FEF7FF
:102360009CFF0020FEF799FF0020FEF796FF00205B
:10237000FEF793FF0020FEF790FFB420FEF784FFE6
:102380008B20FEF78AFF0020FEF787FF9620FEF7DE
:1023900084FF0020FEF781FFA120FEF77EFF0020D2
:1023A000FEF77BFFB520FEF76FFF0220FEF775FFFB
:1023B0000020FEF772FF0320FEF76FFF0020FEF7FC
:1023C0006CFF0420FEF769FF0020FEF766FFB620D1
:1023D000FEF75AFF0020FEF760FF0020FEF75DFFCA
:1023E000B720FEF751FF0020FEF757FF0020FEF751
:1023F00054FF3F20FEF751FF0020FEF74EFF5E2006
:10240000FEF74BFF0020FEF748FF6420FEF745FF74
:102410000020FEF742FF8C20FEF73FFF0020FEF772
:102420003CFFAC20FEF739FF0020FEF736FFDC2032
:10243000FEF733FF0020FEF730FF7020FEF72DFF80
:102440000020FEF72AFF9020FEF727FF0020FEF76E
:1024500024FFEB20FEF721FF0020FEF71EFFDC200B
:10246000FEF71BFF0020FEF718FFB820FEF70CFF59
:102470000020FEF712FF0020FEF70FFF0020FEF7FE
:102480000CFF0020FEF709FF0020FEF706FF0020EA
:10249000FEF703FF0020FEF700FF0020FEF7FDFE21
:1024A000BA20FEF7F1FE2420FEF7F7FE0020FEF72B
:1024B000F4FE0020FEF7F1FE0020FEF7EEFEC12044
:1024C000FEF7E2FE2020FEF7E8FE0020FEF7E5FE24
:1024D0005420FEF7E2FE0020FEF7DFFEFF20FEF7AD
:1024E000DCFE0020FEF7D9FEC220FEF7CDFE0A205A
:1024F000FEF7D3FE0020FEF7D0FE0420FEF7CDFE4F
:102500000020FEF7CAFEC320FEF7BEFE3C20FEF709
:10251000C4FE0020FEF7C1FE3A20FEF7BEFE0020FA
:10252000FEF7BBFE3920FEF7B8FE0020FEF7B5FE31
:102530003720FEF7B2FE0020FEF7AFFE3C20FEF78C
:10254000ACFE0020FEF7A9FE3620FEF7A6FE002016
:10255000FEF7A3FE3220FEF7A0FE0020FEF79DFE50
:102560002F20FEF79AFE0020FEF797FE2C20FEF7A4
:1025700094FE0020FEF791FE2920FEF78EFE00203B
:10258000FEF78BFE2620FEF788FE0020FEF785FE74
:102590002420FEF782FE0020FEF77FFE2420FEF7B7
:1025A0007CFE0020FEF779FE2320FEF776FE002059
:1025B000FEF773FE3C20FEF770FE0020FEF76DFE76
:1025C0003620FEF76AFE0020FEF767FE3220FEF797
:1025D00064FE0020FEF761FE2F20FEF75EFE002065
:1025E000FEF75BFE2C20FEF758FE0020FEF755FE9E
:1025F0002920FEF752FE0020FEF74FFE2620FEF7B0
:102600004CFE0020FEF749FE2420FEF746FE002087
:10261000FEF743FE2420FEF740FE0020FEF73DFEBD
:102620002320FEF73AFE0020FEF737FEC420FEF717
:102630002BFE6220FEF731FE0020FEF72EFE052065
:10264000FEF72BFE0020FEF728FE8420FEF725FE75
:102650000020FEF722FEF020FEF71FFE0020FEF70E
:102660001CFE1820FEF719FE0020FEF716FEA4201F
:10267000FEF713FE0020FEF710FE1820FEF70DFEF9
:102680000020FEF70AFE5020FEF707FE0020FEF7AE
:1026900004FE0C20FEF701FE0020FEF7FEFD1720D1
:1026A000FEF7FBFD0020FEF7F8FD9520FEF7F5FD97
:1026B0000020FEF7F2FDF320FEF7EFFD0020FEF70D
:1026C000ECFDE620FEF7E9FD0020FEF7E6FDC52063
:1026D000FEF7DAFD3220FEF7E0FD0020FEF7DDFD1B
:1026E0004420FEF7DAFD0020FEF7D7FD6520FEF757
:1026F000D4FD0020FEF7D1FD7620FEF7CEFD0020B0
:10270000FEF7CBFD8820FEF7C8FD0020FEF7C5FDD3
:10271000C620FEF7B9FD2020FEF7BFFD0020FEF722
:10272000BCFD1720FEF7B9FD0020FEF7B6FD012025
:10273000FEF7B3FD0020FEF7B0FDC720FEF7A4FDB5
:102740000020FEF7AAFD0020FEF7A7FD0020FEF7FF
:10275000A4FD0020FEF7A1FDC820FEF795FD002096
:10276000FEF79BFD0020FEF798FD0020FEF795FD8B
:102770000020FEF792FDC920FEF786FD0020FEF73F
:102780008CFD0020FEF789FD0020FEF786FD00206D
:10279000FEF783FD0020FEF780FD0020FEF77DFDA3
:1027A0000020FEF77AFD0020FEF777FD0020FEF7FF
:1027B00074FD0020FEF771FD0020FEF76EFD002085
:1027C000FEF76BFD0020FEF768FD0020FEF765FDBB
:1027D0000020FEF762FD0020FEF75FFDE020FEF71F
:1027E00053FD1620FEF759FD0020FEF756FD1C2074
:1027F000FEF753FD0020FEF750FD2120FEF74DFDB2
:102800000020FEF74AFD3620FEF747FD0020FEF7C8
:1028100044FD4620FEF741FD0020FEF73EFD52201C
:10282000FEF73BFD0020FEF738FD6420FEF735FD86
:102830000020FEF732FD7A20FEF72FFD0020FEF784
:102840002CFD8B20FEF729FD0020FEF726FD9920A8
:10285000FEF723FD0020FEF720FDA820FEF71DFD5A
:102860000020FEF71AFDB920FEF717FD0020FEF745
:1028700014FDC420FEF711FD0020FEF70EFDCA2056
:10288000FEF70BFD0020FEF708FDD220FEF705FD48
:102890000020FEF702FDD920FEF7FFFC0020FEF726
:1028A000FCFCE020FEF7F9FC0020FEF7F6FCF3202C
:1028B000FEF7F3FC0020FEF7F0FCE120FEF7E4FC5D
:1028C0001620FEF7EAFC0020FEF7E7FC1C20FEF7CE
:1028D000E4FC0020FEF7E1FC2220FEF7DEFC0020F5
:1028E000FEF7DBFC3620FEF7D8FC0020FEF7D5FC17
:1028F0004520FEF7D2FC0020FEF7CFFC5220FEF769
:10290000CCFC0020FEF7C9FC6420FEF7C6FC0020CA
:10291000FEF7C3FC7A20FEF7C0FC0020FEF7BDFCEA
:102920008B20FEF7BAFC0020FEF7B7FC9920FEF7DB
:10293000B4FC0020FEF7B1FCA820FEF7AEFC00209E
:10294000FEF7ABFCB920FEF7A8FC0020FEF7A5FCC3
:10295000C420FEF7A2FC0020FEF79FFCCA20FEF771
:102960009CFC0020FEF799FCD220FEF796FC00208C
:10297000FEF793FCD820FEF790FC0020FEF78DFCBC
:10298000E020FEF78AFC0020FEF787FCF320FEF72C
:1029900084FC0020FEF781FCE220FEF775FC052098
:1029A000FEF77BFC0020FEF778FC0B20FEF775FCA1
:1029B0000020FEF772FC1B20FEF76FFC0020FEF7E4
:1029C0006CFC3420FEF769FC0020FEF766FC442016
:1029D000FEF763FC0020FEF760FC4F20FEF75DFC75
:1029E0000020FEF75AFC6120FEF757FC0020FEF79E
:1029F00054FC7920FEF751FC0020FEF74EFC8820A5
:102A0000FEF74BFC0020FEF748FC9720FEF745FC44
:102A10000020FEF742FCA620FEF73FFC0020FEF758
:102A20003CFCB720FEF739FC0020FEF736FCC22044
:102A3000FEF733FC0020FEF730FCC720FEF72DFC2C
:102A40000020FEF72AFCD120FEF727FC0020FEF72D
:102A500024FCD620FEF721FC0020FEF71EFCDD2022
:102A6000FEF71BFC0020FEF718FCF320FEF715FC18
:102A70000020FEF712FCE320FEF706FC0520FEF71F
:102A80000CFC0020FEF709FC0A20FEF706FC0020E3
:102A9000FEF703FC1C20FEF700FC0020FEF7FDFB08
:102AA0003320FEF7FAFB0020FEF7F7FB4420FEF789
:102AB000F4FB0020FEF7F1FB5020FEF7EEFB0020B8
:102AC000FEF7EBFB6220FEF7E8FB0020FEF7E5FBDC
:102AD0007820FEF7E2FB0020FEF7DFFB8820FEF700
:102AE000DCFB0020FEF7D9FB9720FEF7D6FB002089
:102AF000FEF7D3FBA620FEF7D0FB0020FEF7CDFBB0
:102B0000B720FEF7CAFB0020FEF7C7FBC220FEF786
:102B1000C4FB0020FEF7C1FBC720FEF7BEFB002070
:102B2000FEF7BBFBD120FEF7B8FB0020FEF7B5FB9C
:102B3000D520FEF7B2FB0020FEF7AFFBDD20FEF74D
:102B4000ACFB0020FEF7A9FBF320FEF7A6FB00205C
:102B5000FEF7A3FBE420FEF797FB0120FEF79DFBA9
:102B60000020FEF79AFB0120FEF797FB0020FEF7FE
:102B700094FB0220FEF791FB0020FEF78EFB2A203B
:102B8000FEF78BFB0020FEF788FB3C20FEF785FB61
:102B90000020FEF782FB4B20FEF77FFB0020FEF7B4
:102BA0007CFB5D20FEF779FB0020FEF776FB7420AE
:102BB000FEF773FB0020FEF770FB8420FEF76DFB31
:102BC0000020FEF76AFB9320FEF767FB0020FEF76C
:102BD00064FBA220FEF761FB0020FEF75EFBB32042
:102BE000FEF75BFB0020FEF758FBBE20FEF755FB0F
:102BF0000020FEF752FBC420FEF74FFB0020FEF73B
:102C00004CFBCD20FEF749FB0020FEF746FBD3200E
:102C1000FEF743FB0020FEF740FBDD20FEF73DFB07
:102C20000020FEF73AFBF320FEF737FB0020FEF70B
:102C300034FBE520FEF728FB0020FEF72EFB0020EA
:102C4000FEF72BFB0020FEF728FB0020FEF725FBFC
:102C50000220FEF722FB0020FEF71FFB2920FEF7D3
:102C60001CFB0020FEF719FB3C20FEF716FB0020A2
:102C7000FEF713FB4B20FEF710FB0020FEF70DFBC9
:102C80005D20FEF70AFB0020FEF707FB7420FEF72D
:102C900004FB0020FEF701FB8420FEF7FEFA002073
:102CA000FEF7FBFA9320FEF7F8FA0020FEF7F5FA9C
:102CB000A220FEF7F2FA0020FEF7EFFAB320FEF7AB
:102CC000ECFA0020FEF7E9FABE20FEF7E6FA002053
:102CD000FEF7E3FAC420FEF7E0FA0020FEF7DDFA83
:102CE000CD20FEF7DAFA0020FEF7D7FAD320FEF760
:102CF000D4FA0020FEF7D1FADC20FEF7CEFA00204D
:102D0000FEF7CBFAF320FEF7C8FA0020FEF7C5FA6B
:102D1000E620FEF7B9FA1120FEF7BFFA0020FEF711
:102D2000BCFA3420FEF7B9FA0020FEF7B6FA5620B6
:102D3000FEF7B3FA0020FEF7B0FA7620FEF7ADFA00
:102D40000020FEF7AAFA7720FEF7A7FA0020FEF788
:102D5000A4FA6620FEF7A1FA0020FEF79EFA88206A
:102D6000FEF79BFA0020FEF798FA9920FEF795FAF5
:102D70000020FEF792FABB20FEF78FFA0020FEF744
:102D80008CFA9920FEF789FA0020FEF786FA662071
:102D9000FEF783FA0020FEF780FA5520FEF77DFA51
:102DA0000020FEF77AFA5520FEF777FA0020FEF7AA
:102DB00074FA4520FEF771FA0020FEF76EFA432000
:102DC000FEF76BFA0020FEF768FA4420FEF765FA7A
:102DD0000020FEF762FAE720FEF756FA3220FEF7EF
:102DE0005CFA0020FEF759FA5520FEF756FA00204B
:102DF000FEF753FA7620FEF750FA0020FEF74DFA60
:102E00006620FEF74AFA0020FEF747FA6720FEF731
:102E100044FA0020FEF741FA6720FEF73EFA002050
:102E2000FEF73BFA8720FEF738FA0020FEF735FA66
:102E30009920FEF732FA0020FEF72FFABB20FEF7AA
:102E40002CFA0020FEF729FA9920FEF726FA002036
:102E5000FEF723FA7720FEF720FA0020FEF71DFA8E
:102E60004420FEF71AFA0020FEF717FA5620FEF764
:102E700014FA0020FEF711FA2320FEF70EFA0020C4
:102E8000FEF70BFA3320FEF708FA0020FEF705FAEA
:102E90004520FEF702FA0020FEF7FFF9E820FEF7D2
:102EA000F3F90020FEF7F9F90020FEF7F6F9992072
:102EB000FEF7F3F90020FEF7F0F98720FEF7EDF9B1
:102EC0000020FEF7EAF98820FEF7E7F90020FEF778
:102ED000E4F97720FEF7E1F90020FEF7DEF966203D
:102EE000FEF7DBF90020FEF7D8F98820FEF7D5F9C8
:102EF0000020FEF7D2F9AA20FEF7CFF90020FEF756
:102F0000CCF9BB20FEF7C9F90020FEF7C6F99920DD
:102F1000FEF7C3F90020FEF7C0F96620FEF7BDF901
:102F20000020FEF7BAF95520FEF7B7F90020FEF7AA
:102F3000B4F95520FEF7B1F90020FEF7AEF94420B0
:102F4000FEF7ABF90020FEF7A8F94420FEF7A5F93B
:102F50000020FEF7A2F95520FEF79FF90020FEF7AA
:102F60009CF9E920FEF790F9AA20FEF796F90020D7
:102F7000FEF793F90020FEF790F90020FEF78DF997
:102F80000020FEF781F9AA20FEF787F9CF20FEF78F
:102F90007BF90020FEF781F90020FEF77EF9002082
:102FA000FEF77BF90020FEF778F90020FEF775F9AF
:102FB0000020FEF772F90020FEF76FF90020FEF7FF
:102FC0006CF90020FEF769F90020FEF766F9002091
:102FD000FEF763F90020FEF760F90020FEF75DF9C7
:102FE0000020FEF75AF90020FEF757F90020FEF7FF
:102FF00054F90020FEF751F9F020FEF745F90020C2
:10300000FEF74BF95020FEF748F90020FEF745F98E
:103010000020FEF742F90020FEF73FF9F320FEF70B
:1030200033F90020FEF739F9F920FEF72DF90620D3
:10303000FEF733F91020FEF730F92920FEF72DF9BD
:103040000020FEF72AF93A20FEF71EF95520FEF778
:1030500024F91120FEF718F9642002F054F8292011
:10306000FEF712F93520FEF70FF90020FEF715F9EB
:103070005120FEF709F9FF20FEF70FF95320FEF764
:1030800003F92C20FEF709F95520FEF7FDF8822000
:10309000FEF703F92C20FEF7F7F801F048B8FE48D8
:1030A000808845F2105188427ED155214FF47040FE
:1030B000FEF705F9AA214FF20100FEF700F95221AF
:1030C0004FF20200FEF7FBF808214FF20300FEF773
:1030D000F6F801214FF20400FEF7F1F80D214FF44C
:1030E0003040FEF7ECF80D214BF20100FEF7E7F857
:1030F0000D214BF20200FEF7E2F834214FF4364086
:10310000FEF7DDF834214BF20160FEF7D8F83421E8
:103110004BF20260FEF7D3F80D214FF43140FEF779
:10312000CEF80D214BF20110FEF7C9F80D214BF23C
:103130000210FEF7C4F834214FF43740FEF7BFF811
:1031400034214BF20170FEF7BAF834214BF20270D1
:10315000FEF7B5F800214FF43240FEF7B0F8002139
:103160004BF20120FEF7ABF800214BF20220FEF7F4
:10317000A6F824214FF43840FEF7A1F824214BF69D
:103180000100FEF79CF824214BF60200FEF797F8A9
:1031900001214FF43F40FEF792F80F214FF43340E6
:1031A000FEF78DF80F2100E0FEE34BF20130FEF751
:1031B00086F80F214BF20230FEF781F834214FF4EC
:1031C0003940FEF77CF834214BF60110FEF777F812
:1031D00034214BF60210FEF772F808214FF4354007
:1031E000FEF76DF808214BF20150FEF768F8082150
:1031F0004BF20250FEF763F803214FF44240FEF712
:103200005EF824214FF43A40FEF759F824214BF69A
:103210000120FEF754F824214BF60220FEF74FF868
:1032200000214FF43C40FEF74AF878214BF601406C
:10323000FEF745F800214BF60240FEF740F800216A
:103240004FF43D40FEF73BF878214BF60150FEF776
:1032500036F800214BF60250FEF731F800214FF40A
:103260003E40FEF72CF864214BF60160FEF727F88C
:1032700000214FF45140FEF722F833214DF20110A6
:10328000FEF71DF800214DF20210FEF718F8342168
:103290004DF20310FEF713F800214DF20410FEF773
:1032A0000EF83A214DF20510FEF709F800214DF213
:1032B0000610FEF704F84A214DF20710FDF7FFFF54
:1032C00000214DF20810FDF7FAFF5C214DF20910C4
:1032D000FDF7F5FF00214DF20A10FDF7F0FF812107
:1032E0004DF20B10FDF7EBFF00214DF20C10FDF736
:1032F000E6FFA6214DF20D10FDF7E1FF00214DF292
:103300000E10FDF7DCFFE5214DF20F10FDF7D7FFA2
:1033100001214DF21010FDF7D2FF13214DF21110D3
:10332000FDF7CDFF01214DF21210FDF7C8FF54212A
:103330004DF21310FDF7C3FF01214DF21410FDF7FC
:10334000BEFF82214DF21510FDF7B9FF01214DF2AC
:103350001610FDF7B4FFCA214DF21710FDF7AFFFAD
:1033600002214DF21810FDF7AAFF00214DF21910AD
:10337000FDF7A5FF02214DF21A10FDF7A0FF012174
:103380004DF21B10FDF79BFF02214DF21C10FDF7C3
:1033900096FF34214DF21D10FDF791FF02214DF2F1
:1033A0001E10FDF78CFF67214DF21F10FDF787FF00
:1033B00002214DF22010FDF782FF84214DF22110F1
:1033C000FDF77DFF02214DF22210FDF778FFA421C9
:1033D0004DF22310FDF773FF02214DF22410FDF78B
:1033E0006EFFB7214DF22510FDF769FF02214DF266
:1033F0002610FDF764FFCF214DF22710FDF75FFF88
:1034000002214DF22810FDF75AFFDE214DF229105E
:10341000FDF755FF02214DF22A10FDF750FFF22172
:103420004DF22B10FDF74BFF02214DF22C10FDF752
:1034300046FFFE214DF22D10FDF741FF03214DF215
:103440002E10FDF73CFF10214DF22F10FDF737FF36
:1034500003214DF23010FDF732FF33214DF23110D0
:10346000FDF72DFF03214DF23210FDF728FF6D21EE
:103470004DF23310FDF723FF00214FF45240FDF7CA
:103480001EFF33214DF20120FDF719FF00214DF2FF
:103490000220FDF714FF01E0F003002034214DF27B
:1034A0000320FDF70CFF00214DF20420FDF707FF7C
:1034B0003A214DF20520FDF702FF00214DF20620D2
:1034C000FDF7FDFE4A214DF20720FDF7F8FE002131
:1034D0004DF20820FDF7F3FE5C214DF20920FDF7C7
:1034E000EEFE00214DF20A20FDF7E9FE81214DF2AA
:1034F0000B20FDF7E4FE00214DF20C20FDF7DFFE6E
:10350000A6214DF20D20FDF7DAFE00214DF20E202E
:10351000FDF7D5FEE5214DF20F20FDF7D0FE01218C
:103520004DF21020FDF7CBFE13214DF21120FDF7D7
:10353000C6FE01214DF21220FDF7C1FE54214DF2CD
:103540001320FDF7BCFE01214DF21420FDF7B7FE5C
:1035500082214DF21520FDF7B2FE01214DF2162019
:10356000FDF7ADFECA214DF21720FDF7A8FE02219E
:103570004DF21820FDF7A3FE00214DF21920FDF7B2
:103580009EFE02214DF21A20FDF799FE01214DF217
:103590001B20FDF794FE02214DF21C20FDF78FFE4B
:1035A00034214DF21D20FDF78AFE02214DF21E202E
:1035B000FDF785FE67214DF21F20FDF780FE0221F9
:1035C0004DF22020FDF77BFE84214DF22120FDF7F6
:1035D00076FE02214DF22220FDF771FEA4214DF26C
:1035E0002320FDF76CFE02214DF22420FDF767FE3B
:1035F000B7214DF22520FDF762FE02214DF2262073
:10360000FDF75DFECF214DF22720FDF758FE022188
:103610004DF22820FDF753FEDE214DF22920FDF763
:103620004EFE02214DF22A20FDF749FEF2214DF215
:103630002B20FDF744FE02214DF22C20FDF73FFE2A
:10364000FE214DF22D20FDF73AFE03214DF22E20F2
:10365000FDF735FE10214DF22F20FDF730FE03213E
:103660004DF23020FDF72BFE33214DF23120FDF7D6
:1036700026FE03214DF23220FDF721FE6D214DF291
:103680003320FDF71CFE00214FF45340FDF717FED9
:1036900033214DF20130FDF712FE00214DF20230D0
:1036A000FDF70DFE34214DF20330FDF708FE002139
:1036B0004DF20430FDF703FE3A214DF20530FDF7DF
:1036C000FEFD00214DF20630FDF7F9FD4A214DF2D5
:1036D0000730FDF7F4FD00214DF20830FDF7EFFD56
:1036E0005C214DF20930FDF7EAFD00214DF20A3070
:1036F000FDF7E5FD81214DF20B30FDF7E0FD0021E6
:103700004DF20C30FDF7DBFDA6214DF20D30FDF73B
:10371000D6FD00214DF20E30FDF7D1FDE5214DF231
:103720000F30FDF7CCFD01214DF21030FDF7C7FD44
:1037300013214DF21130FDF7C2FD01214DF212307F
:10374000FDF7BDFD54214DF21330FDF7B8FD012109
:103750004DF21430FDF7B3FD82214DF21530FDF727
:10376000AEFD01214DF21630FDF7A9FDCA214DF243
:103770001730FDF7A4FD02214DF21830FDF79FFD33
:1037800000214DF21930FDF79AFD02214DF21A3059
:10379000FDF795FD01214DF21B30FDF790FD022153
:1037A0004DF21C30FDF78BFD34214DF21D30FDF73D
:1037B00086FD02214DF21E30FDF781FD67214DF29D
:1037C0001F30FDF77CFD02214DF22030FDF777FD23
:1037D00084214DF22130FDF772FD02214DF222309D
:1037E000FDF76DFDA4214DF22330FDF768FD0221A8
:1037F0004DF22430FDF763FDB7214DF22530FDF782
:103800005EFD02214DF22630FDF759FDCF214DF22C
:103810002730FDF754FD02214DF22830FDF74FFD12
:10382000DE214DF22930FDF74AFD02214DF22A300A
:10383000FDF745FDF2214DF22B30FDF740FD022151
:103840004DF22C30FDF73BFDFE214DF22D30FDF702
:1038500036FD03214DF22E30FDF731FD10214DF2E2
:103860002F30FDF72CFD03214DF23030FDF727FD01
:1038700033214DF23130FDF722FD03214DF232307C
:10388000FDF71DFD6D214DF23330FDF718FD0021D0
:103890004FF45440FDF713FD33214DF20140FDF785
:1038A0000EFD00214DF20240FDF709FD34214DF2DD
:1038B0000340FDF704FD00214DF20440FDF7FFFC3D
:1038C0003A214DF20540FDF7FAFC00214DF2064089
:1038D000FDF7F5FC4A214DF20740FDF7F0FC002111
:1038E0004DF20840FDF7EBFC5C214DF20940FDF77D
:1038F000E6FC00214DF20A40FDF7E1FC81214DF28A
:103900000B40FDF7DCFC00214DF20C40FDF7D7FC2D
:10391000A6214DF20D40FDF7D2FC00214DF20E40E4
:10392000FDF7CDFCE5214DF20F40FDF7C8FC01216C
:103930004DF21040FDF7C3FC13214DF21140FDF78D
:10394000BEFC01214DF21240FDF7B9FC54214DF2AD
:103950001340FDF7B4FC01214DF21440FDF7AFFC1C
:1039600082214DF21540FDF7AAFC01214DF21640CF
:10397000FDF7A5FCCA214DF21740FDF7A0FC02217E
:103980004DF21840FDF79BFC00214DF21940FDF768
:1039900096FC02214DF21A40FDF791FC01214DF2F7
:1039A0001B40FDF78CFC00E003E302214DF21C40BC
:1039B000FDF785FC34214DF21D40FDF780FC02210E
:1039C0004DF21E40FDF77BFC67214DF21F40FDF7D5
:1039D00076FC02214DF22040FDF771FC84214DF26E
:1039E0002140FDF76CFC02214DF22240FDF767FCFF
:1039F000A4214DF22340FDF762FC02214DF2244048
:103A0000FDF75DFCB7214DF22540FDF758FC022182
:103A10004DF22640FDF753FCCF214DF22740FDF734
:103A20004EFC02214DF22840FDF749FCDE214DF20B
:103A30002940FDF744FC02214DF22A40FDF73FFCEE
:103A4000F2214DF22B40FDF73AFC02214DF22C40C1
:103A5000FDF735FCFE214DF22D40FDF730FC032132
:103A60004DF22E40FDF72BFC10214DF22F40FDF7BB
:103A700026FC03214DF23040FDF721FC33214DF2AD
:103A80003140FDF71CFC03214DF23240FDF717FCDD
:103A90006D214DF23340FDF712FC00214FF45540EB
:103AA000FDF70DFC33214DF20150FDF708FC00211C
:103AB0004DF20250FDF703FC34214DF20350FDF7A7
:103AC000FEFB00214DF20450FDF7F9FB3A214DF2C7
:103AD0000550FDF7F4FB00214DF20650FDF7EFFB1A
:103AE0004A214DF20750FDF7EAFB00214DF2085044
:103AF000FDF7E5FB5C214DF20950FDF7E0FB0021ED
:103B00004DF20A50FDF7DBFB81214DF20B50FDF722
:103B1000D6FB00214DF20C50FDF7D1FBA6214DF252
:103B20000D50FDF7CCFB00214DF20E50FDF7C7FB09
:103B3000E5214DF20F50FDF7C2FB01214DF210506F
:103B4000FDF7BDFB13214DF21150FDF7B8FB01212C
:103B50004DF21250FDF7B3FB54214DF21350FDF717
:103B6000AEFB01214DF21450FDF7A9FB82214DF26D
:103B70001550FDF7A4FB01214DF21650FDF79FFBF8
:103B8000CA214DF21750FDF79AFB02214DF2185051
:103B9000FDF795FB00214DF21950FDF790FB022136
:103BA0004DF21A50FDF78BFB01214DF21B50FDF732
:103BB00086FB02214DF21C50FDF781FB34214DF2B2
:103BC0001D50FDF77CFB02214DF21E50FDF777FBE7
:103BD00067214DF21F50FDF772FB02214DF220507C
:103BE000FDF76DFB84214DF22150FDF768FB0221AA
:103BF0004DF22250FDF763FBA4214DF22350FDF757
:103C00005EFB02214DF22450FDF759FBB7214DF226
:103C10002550FDF754FB02214DF22650FDF74FFBD6
:103C2000CF214DF22750FDF74AFB02214DF22850DB
:103C3000FDF745FBDE214DF22950FDF740FB022147
:103C40004DF22A50FDF73BFBF2214DF22B50FDF7D0
:103C500036FB02214DF22C50FDF731FBFE214DF2D7
:103C60002D50FDF72CFB03214DF22E50FDF727FBC5
:103C700010214DF22F50FDF722FB03214DF2305061
:103C8000FDF71DFB33214DF23150FDF718FB0321E9
:103C90004DF23250FDF713FB6D214DF23350FDF71D
:103CA0000EFB00214FF45640FDF709FB33214DF286
:103CB0000160FDF704FB00214DF20260FDF7FFFA01
:103CC00034214DF20360FDF7FAFA00214DF2046051
:103CD000FDF7F5FA3A214DF20560FDF7F0FA002103
:103CE0004DF20660FDF7EBFA4A214DF20760FDF751
:103CF000E6FA00214DF20860FDF7E1FA5C214DF291
:103D00000960FDF7DCFA00214DF20A60FDF7D7FAF1
:103D100081214DF20B60FDF7D2FA00214DF20C60CB
:103D2000FDF7CDFAA6214DF20D60FDF7C8FA00218E
:103D30004DF20E60FDF7C3FAE5214DF20F60FDF77D
:103D4000BEFA01214DF21060FDF7B9FA13214DF2D0
:103D50001160FDF7B4FA01214DF21260FDF7AFFAE0
:103D600054214DF21360FDF7AAFA01214DF21460BF
:103D7000FDF7A5FA82214DF21560FDF7A0FA0121A9
:103D80004DF21660FDF79BFACA214DF21760FDF760
:103D900096FA02214DF21860FDF791FA00214DF2DA
:103DA0001960FDF78CFA02214DF21A60FDF787FACF
:103DB00001214DF21B60FDF782FA02214DF21C60D9
:103DC000FDF77DFA34214DF21D60FDF778FA0221EE
:103DD0004DF21E60FDF773FA67214DF21F60FDF78B
:103DE0006EFA02214DF22060FDF769FA84214DF24E
:103DF0002160FDF764FA02214DF22260FDF75FFABF
:103E0000A4214DF22360FDF75AFA02214DF22460FD
:103E1000FDF755FAB7214DF22560FDF750FA022162
:103E20004DF22660FDF74BFACF214DF22760FDF7EA
:103E300046FA02214DF22860FDF741FADE214DF2EB
:103E40002960FDF73CFA02214DF22A60FDF737FAAE
:103E5000F2214DF22B60FDF732FA02214DF22C6077
:103E6000FDF72DFAFE214DF22D60FDF728FA032112
:103E70004DF22E60FDF723FA10214DF22F60FDF771
:103E80001EFA03214DF23060FDF719FA33214DF28D
:103E90003160FDF714FA03214DF23260FDF70FFA9D
:103EA0006D214DF23360FDF70AFA55214FF4704051
:103EB000FDF705FAAA214FF20100FDF700FA5221A1
:103EC0004FF20200FDF7FBF908214FF20300FDF766
:103ED000F6F900214FF20400FDF7F1F9CC214FF47F
:103EE0003140FDF7ECF900214BF20110FDF7E7F945
:103EF00005214FF43640FDF7E2F970214FF43740C9
:103F0000FDF7DDF970214BF20170FDF7D8F90121C1
:103F10004FF43840FDF7D3F903214BF60100FDF7CC
:103F2000CEF903214BF60200FDF7C9F903214BF648
:103F30000300FDF7C4F902214FF43C40FDF7BFF93F
:103F400000214BF60140FDF7BAF900214BF6024083
:103F5000FDF7B5F9D0214FF44940FDF7B0F9022142
:103F60004CF60110FDF7ABF950214CF60210FDF7AD
:103F7000A6F950214CF60310FDF7A1F950214CF69B
:103F80000410FDF79CF900214FF45450FDF797F908
:103F900055214FF46850FDF792F94FF48850FDF722
:103FA00073F9782001F0CCF84FF42450FDF76CF948
:103FB000BDE0FE48808841F663118842F8D1E220D6
:103FC000FDF762F91D20FDF768F90220FDF765F99C
:103FD0000420FDF762F9642001F0B2F8E020FDF75B
:103FE00053F90120FDF759F90A2001F08CF8E0207F
:103FF000FDF74AF90320FDF750F90C2001F083F892
:104000000120FDF741F90A2001F07DF8E620FDF7D7
:104010003BF92F20FDF741F9FF20FDF73EF9FF2086
:10402000FDF73BF9B020FDF72FF92020FDF735F91A
:104030000020FDF732F90320FDF72FF940F21F3081
:10404000FDF72BF90120FDF728F940F2DF10FDF70D
:1040500024F90020FDF721F9B420FDF715F904201B
:10406000FDF71BF940F21F40FDF717F90020FDF79F
:1040700014F92E20FDF711F90020FDF70EF90020AC
:10408000FDF70BF90020FDF708F90020FDF705F911
:10409000B620FDF7F9F80220FDF7FFF84FF40370A2
:1040A000FDF7FBF80020FDF7F8F81720FDF7F5F80D
:1040B0001520FDF7F2F80020FDF7EFF80020FDF7DE
:1040C000ECF8F020FDF7E0F80320FDF7E6F82920F2
:1040D000FDF7DAF8D020FDF7D7F80020FDF7DDF87E
:1040E000BE20FDF7D1F80520FDF7D7F8FE20FDF73B
:1040F000D4F80120FDF7D1F80020FDF7CEF800201C
:10410000FDF7CBF80020FDF7C8F8B820FDF7BCF8A4
:104110000320FDF7C2F80120FDF7BFF8BA20FDF734
:10412000B3F80120FDF7B9F86420FDF7F8FB9F48CC
:10413000808849F24131884211D09C48808845F2FC
:10414000103188420BD09948808845F2105188423E
:1041500005D09648808841F6631188421CD1944866
:10416000006820F00F004FF02041C1F81C01084604
:10417000D0F81C0120F47060C1F81C010846D0F88A
:104180001C0140F00100C1F81C010846D0F81C01D8
:1041900040F48070C1F81C010020FDF7E8FB01200D
:1041A000844908604FF6FF70FDF7B3FD002013B09F
:1041B00000BD2DE9F04F05460E4617469846DDF83E
:1041C00024A04FF0000B781B401C1FFA80FB3446E4
:1041D00013E021462846FDF79FF8FDF780F84FF0E1
:1041E000000906E07449A1F800A009F101001FFAD6
:1041F00080F9D945F6DB601C84B24445E9DDBDE8B1
:10420000F08F2DE9F84F07460D4690469946DDF8A8
:1042100028B0A8EB0700401C1FFA80FAA9EB0500A4
:10422000401C80B20090002414E0281981B2384666
:10423000FDF772F8FDF753F8002607E004FB0A606B
:104240003BF810005C490880701C86B25645F5DBCF
:10425000601C84B200988442E7DBBDE8F88F2DE94A
:10426000FF4F84B081468A46002003900290069852
:10427000A0EB09050798A0EB0A06CDF80490CDF84D
:1042800000A0002D01DD012705E00DB9002702E0A7
:104290004FF0FF376D42002E02DD4FF0010806E0BF
:1042A00016B94FF0000802E04FF0FF387642B542F1
:1042B00001DD2C4600E034464FF0000B21E0009A6F
:1042C00091B2019A90B2FDF79BFA039828440390AB
:1042D0000298304402900398A04205DD0398001B29
:1042E00003900198384401900298A04205DD02989D
:1042F000001B02900098404400900BF101001FFA4F
:1043000080FB601C8345DADD08B0BDE8F08FF0B5B6
:1043100004460D4616461F462B4632462946204681
:10432000FFF79DFF3B46224629462046FFF797FFB1
:104330003B46324639462046FFF791FF3B46324620
:1043400029463046FFF78BFFF0BD2DE9F0430646C6
:104350000F469046002445460320A0EB480945E05F
:104360007A1B91B2321990B2FDF74AFA3A1B91B218
:10437000721990B2FDF744FA3A1991B2721990B2DB
:10438000FDF73EFA7A1991B2321990B2FDF738FA78
:104390007A1991B2321B90B2FDF732FA3A1991B202
:1043A000721B90B2FDF72CFA7A1B07E0F003002095
:1043B0001C0100A0808121420008006C91B2321BD8
:1043C00090B2FDF71DFA3A1B91B2721B90B2FDF745
:1043D00017FA641CB9F1000F03DAA000801D8144B4
:1043E00004E0601B80000A3081446D1EAC42B7DDE2
:1043F000BDE8F0832DE9F84F80460F4616461C466F
:10440000BB462046E31704EB5373DB1021464FEA0B
:10441000E47C04EB5C7C4FEAEC0CA4EBCC0CBCF130
:10442000000F02D04FF0010C01E04FF0000C63448C
:10443000224604EBD27C4FEA6C0C03FB0CF3DBB29C
:104440000093A6F12000C6B200255EE00C2C07D137
:1044500006EB4600FE4901EB800010F805901BE0DA
:10446000102C05D1FB4800EB061010F8059013E066
:10447000182C07D106EBC600F74901EB800010F8B5
:10448000059009E0202C05D1F44800EBC61010F887
:10449000059001E0BDE8F88F4FF0000A2FE009F029
:1044A000800030B1EE48394602684046FDF7B6F963
:1044B00007E00A9828B9EB48394602684046FDF7FC
:1044C000ADF94FEA49604FEA1069781C87B2E648B7
:1044D0004088B84200DCDDE7A7EB0B00A0420AD120
:1044E0005F4608F101001FFA80F8DF480088404568
:1044F00000DCCFE706E00AF1010000F0FF0ABAF1A4
:10450000080FCCDB00BF681CC5B2009885429DDB5C
:1045100000BFBFE710B50246012000E050430B1E6C
:10452000A1F10104E1B2F9D110BD2DE9FF4F81B035
:10453000074691461E460E9D4FF0000A002439E0C2
:10454000301B401EC1B20A20FFF7E4FFB9FBF0F0B8
:104550000A21B0FBF1F201FB1208BAF1000F16D1EB
:10456000701EA04213DDB8F1000F0ED10020AB4643
:1045700005EBDB71491001FB0471009088B22B46FA
:1045800020220299FFF736FF12E04FF0010A0020C7
:10459000AB4605EBDB71491001FB0471009088B25A
:1045A00008F13001CAB22B460299FFF723FF00BF82
:1045B000601CC4B2B442C3DB05B0BDE8F08F2DE986
:1045C000FF4F82B0064692461F46DDE90F480020A5
:1045D000019000254DE0781B401EC1B20A20FFF774
:1045E00099FFBAFBF0F00A21B0FBF1F201FB1209CE
:1045F000019850BB781EA84227DDB9F1000F22D1E7
:1046000008F0800078B108F00100A34604EBDB71EC
:10461000491001FB0561009088B2234630220399BE
:10462000FFF7E8FE0EE008F00100A34604EBDB71A3
:10463000491001FB0561009088B2234620220399AE
:10464000FFF7D8FE13E00120019008F00100A34617
:1046500004EBDB71491001FB0561009088B209F1A0
:104660003001CAB223460399FFF7C4FE00BF681C9D
:10467000C5B2BD42AFDB06B0BDE8F08F2DE9F8470B
:1046800004460D4690469946DDE9096704F0FF0AA5
:1046900008EB04001FFA80F809EB05001FFA80F907
:1046A00016E0444502DD5446A81985B24D4500DDAB
:1046B00014E0002000903A78334629462046FFF760
:1046C00099FE304606EBD07104EB61018CB27F1C81
:1046D00038787E2802DC38782028E2DA00BFBDE88E
:1046E000F8870CB500205E49086060A018210B46D1
:1046F000C822CDE9001000211420FFF7BFFF1823C6
:10470000F02219460020FFF7AAFD5DA010210B46FC
:10471000C822CDE9001019210220FFF7AFFF5FA0EA
:104720001821CDE90010504909885F3988B2182353
:10473000C8223A21FFF7A2FF2A23F02219460020BF
:10474000FFF78DFD5F23F02219460020FFF787FD5C
:10475000CF23F02219460020FFF781FD5F23782246
:1047600018211046FFF77BFD4EA018210B46C822EA
:10477000CDE9001060210020FFF780FF7A23F022AE
:1047800019460020FFF76BFD4BA010210B46C822F5
:10479000CDE900107C210020FFF770FF4AA0102116
:1047A0000B46C822CDE900108E210020FFF766FFDE
:1047B00049A010210B46C822CDE900109E210020FF
:1047C000FFF75CFF48A010210B46C822CDE900107E
:1047D000B0210020FFF752FF47A018210B46C82246
:1047E000CDE90010D1210020FFF748FFEA23F02295
:1047F00019460020FFF733FD44A010210B46C822C4
:10480000CDE90010EC210020FFF738FF46A0102171
:104810000B46C822CDE90010FE210020FFF72EFF35
:1048200048A010210B46C822CDE900104FF4887132
:104830000020FFF723FF4AA010210B46C822CDE934
:1048400000104FF491710020FFF718FF00200CBDFD
:10485000E40F020858140208481A0208A4270208A4
:104860000C00002010000020F0030020536D617246
:104870007420486F6D652043656E7465720000009A
:104880002043757272656E742054696D6520202016
:10489000202020204D6F64650000000020486F6DCF
:1048A0006520000020202053656E736F72205374C2
:1048B000617475730000000054656D7065726174F9
:1048C0007572653A0000000048756D696469747915
:1048D0002020203A00000000466972652053746170
:1048E0007475733A000000004D2020202020202005
:1048F0002020513A00000000202020436F6E747287
:104900006F6C2050616E6E656C00000042656472D1
:104910006F6F6D202020204C696768743A2020203A
:1049200020204F46460000004C6976696E67726F22
:104930006F6D204C696768743A20202020204F4614
:1049400046000000436F727269646F722020204C31
:10495000696768743A20202020204F4646000000F6
:104960004375727461696E3A20204F50454E202085
:10497000434C4F534520204B2F5400000CB5A0232F
:10498000F02219460120FFF76AFCC823F0221946DD
:104990000020FFF764FCF0231A4619460020FFF7B9
:1049A0005EFC4FF48C73F02219460020FFF757FC91
:1049B0004FF4A0735022A0211046FFF750FC4FF493
:1049C000A073A02211461046FFF749FC3DA0182114
:1049D0000B46C822CDE90010AA212620FFF74EFE83
:1049E00039A018210B46C822CDE90010AA21742055
:1049F000FFF744FE35A018210B46C822CDE9001070
:104A0000AA21C720FFF73AFE31A018210B46C82281
:104A1000CDE90010D5212620FFF730FE2DA018216A
:104A20000B46C822CDE90010D5217420FFF726FEE1
:104A300029A018210B46C822CDE90010D521C72096
:104A4000FFF71CFE25A018210B46C822CDE9001057
:104A5000F9212620FFF712FE21A018210B46C822BB
:104A6000CDE90010F9217420FFF708FE1DA01821E0
:104A70000B46C822CDE90010F921C720FFF7FEFD43
:104A800019A018210B46C822CDE9001040F22111CF
:104A90002620FFF7F3FD15A018210B46C822CDE90B
:104AA000001040F221117420FFF7E8FD10A018213A
:104AB0000B46C822CDE9001040F22111C720FFF7B4
:104AC000DDFD0CBD300000003100000032000000B0
:104AD0003300000034000000350000003600000004
:104AE00037000000380000003900000043000000DB
:104AF0004500000000B585B000BF9948806940F0CE
:104B00000800974988610846806900F00800009015
:104B100000BF00BFC020019001200290039003203D
:104B2000049001A98F4805F061FB01208E490860BF
:104B30008E49C1F8980105B000BD10B589480068DC
:104B400020F07040874908600846006840F04050F7
:104B500008600120844908608449C1F89801042054
:104B600000F0EEFA002080490860042000F0E8FA26
:104B700000207E49C1F8980110BD10B57948006841
:104B800020F07040774908600846006840F04050C7
:104B9000086000207449091F08607449C1F89C012D
:104BA000042000F0CDFA01206F49091F08606F4909
:104BB000C1F89C01042000F0C3FA10BD10B5002418
:104BC0006848006820F07040664908600846006840
:104BD00040F00040086001206349086000F0BCFA22
:104BE00001206249C1F8980100F0B6FA07E0601CA4
:104BF000C4B2FA2C03DDFFF7C0FF012010BD5A48F4
:104C0000803800680028F2D15749091F086000BFAA
:104C1000F4E710B500205449091F086051480068A6
:104C200020F070404F4908600846006840F040504E
:104C3000086000204D49C1F89C01022000F080FA74
:104C400001204949091F0860022000F079FA00207C
:104C50004649C1F8980110BD10B500204249091F0E
:104C600008604048006820F070403E4908600846EF
:104C7000006840F04050086001203C49C1F89C01A8
:104C8000022000F05DFA01203749091F0860022068
:104C900000F056FA00203549C1F8980110BD70B5F2
:104CA00004463048006820F070402E4908600846ED
:104CB000006840F04050086000202B49091F086040
:104CC000002517E0E009284908606006040E02206C
:104CD00000F036FA01202549C1F89801022000F0C1
:104CE0002FFA00202049091F0860022000F028FA4E
:104CF000681CC5B2082DE5DB70BD70B50546002403
:104D00001848006820F0704016490860084600689E
:104D100040F000400860002617E000201249091FFB
:104D20000860022000F00CFA01201049C1F8980137
:104D30006006040E0C488038006808B1601CC4B2DC
:104D4000012000F0FDF9701CC6B2082EE5DB15B994
:104D5000FFF782FF01E0FFF75CFF204670BD000017
:104D600000100240000C01409C8121420080214241
:104D70002DE9F04104460E4617464FF00008FBF7B8
:104D80003DFDB220FBF7EAFDFBF777FD2012FBF7B4
:104D9000E5FDFBF772FDE0B2FBF7E0FDFBF76DFD13
:104DA00000250BE0705DFBF7D9FDFBF766FD804643
:104DB000B8F1000F00D003E0681CC5B2BD42F1DBC2
:104DC00000BFFBF73CFD4046BDE8F0812DE9F04116
:104DD00005460F461646FBF711FDB220FBF7BEFD58
:104DE000FBF74BFD2812FBF7B9FDFBF746FDE8B2D8
:104DF000FBF7B4FDFBF741FDFBF700FDB320FBF72C
:104E0000ADFDFBF73AFD00240BE0711EA14201D07D
:104E1000012100E000210846FBF7CBFD3855601C5E
:104E2000C4B2B442F1DBFBF70AFDBDE8F08138B54E
:104E30000446002000900CB18020009001226946B9
:104E40004FF45060FFF794FF38BD00B587B00020E5
:104E5000069000BF9248806940F0800090498861C8
:104E60000846806900F08000019000BF00BFC814B0
:104E700002900120039004900320059002A9894824
:104E800005F0B4F94FF4806002900020039002A96D
:104E9000844805F0ABF9FBF77AFC002082490860F2
:104EA0006420FBF705FE01208049C1F8AC016420B5
:104EB000FBF7FEFD0120FFF7BAFF012206A94FF420
:104EC0005060FFF783FF9DF8181079A01BF062FB7C
:104ED0009DF81800802802D1002007B000BD0120F5
:104EE000FBE72DE9F14F82B04FF0000AD34673483B
:104EF0000078401C71490870084600780A2190FB30
:104F0000F1F201FB120018B16C4800780A287DDA32
:104F1000012202A90020FFF759FF9DF8080000F0C8
:104F20001F00002872D09DF8080000F01F0040F01C
:104F3000C000634981F820004FF0000A76E0604825
:104F400090F82000012101FA0AF10840002869D0F8
:104F50005C4931F81A00042201A9FFF737FF5848CD
:104F600090F8300000F0010078B39DF807109DF82C
:104F7000062001EB02201AF09DFF0646524A534BD1
:104F80001AF018FF04461AF0FFFF81B24C481630A1
:104F900020F81A109DF805109DF8042001EB02205E
:104FA0001AF088FF06464A4A4A4B1AF003FF804629
:104FB0000022494B1AF0FBFE04461AF0E5FF81B2CD
:104FC0003F480C3020F81A102CE0FFE79DF807103E
:104FD0009DF8062001EB02201AF06CFF06463A4AC3
:104FE0003A4B1AF0E7FE04461AF0CEFF81B234487D
:104FF0000C3020F81A109DF805109DF8042001EBE4
:1050000002201AF057FF0646314A00E01EE0314BFD
:105010001AF0D0FE04461AF0B7FF81B228481630C5
:1050200020F81A100AF1010000F0FF0ABAF1050F8A
:1050300085DB4FF0010B2248808920B92048C08AC7
:1050400008B90020029000201C4908709DF8080053
:1050500000F01F00D0B91A4890F8200000F080003E
:1050600040B1174890F8200020F08000144981F8E2
:1050700020000BE04FF6FF7011498881C882084676
:1050800090F8200000F0E00081F820000B48007844
:10509000F02802DD0A20094908705846BDE8FE8F55
:1050A00000100240001C0140AC81234200802342DA
:1050B0004354502049443A25780D0A00140000203A
:1050C00040000020245702087B14AE47E17AD43F09
:1050D000D881734694F6D23F0000894010B502464D
:1050E0000BE0002101E04B1C99B20529FBDB0020FD
:1050F00001E0431C98B20528FBDB131EA2F101045A
:10510000A2B2EED110BD10B502460BE0002007E0C0
:10511000002101E04B1C99B26429FBDB431C98B2CF
:105120005028F5DB131EA2F10104A2B2EED110BD8E
:10513000002100BF01E04A1C91B28142FBDB7047B5
:1051400000EB80014FF6FF7202EA410000BF411EF2
:1051500089B2081EFBD1704700EB800188B200BF06
:10516000411E89B2081EFBD170472DE9FC5F054640
:105170000E4614464FF0000BD946CA46042C00DDFB
:105180000424012C00DA0124012C06D0022C07D0C3
:10519000032C08D0042C0CD108E04FF00A0A09E0D7
:1051A0004FF0640A06E04FF47A7A03E042F2107A94
:1051B00000E000BF00BF50461AF08DFE2A4633467D
:1051C000CDE900011AF0F6FD07461AF0BEFE83464F
:1051D000BBFBFAF00AFB10B01FFA80F94846BDE8A5
:1051E000FC9F0000F0B503460C461546642093FB77
:1051F000F0F0C6B2642093FBF0F700FB1730C1B2A9
:10520000132E02DD01F16400C1B20846CF1701EB95
:10521000977701EBA707BAB2072092FBF0F700FBE4
:10522000172082B25719601EDFF860C41CF8000016
:10523000384482B2CF1701EB9777BF10A1EB8707F5
:105240001FB9032C01DA501E82B2072092FBF0F73F
:1052500000FB1720C0B2F0BD0146CA1701EB9272E5
:105260009210A1EB820292B9642091FBF0F200FB54
:10527000121050B94FF4C87091FBF0F200FB1210FD
:1052800008B9012070470020FCE70120FAE7002060
:10529000F8E770B5002600240025FD4806683604AE
:1052A000001D00680644FB48B6FBF0F4FA4800888D
:1052B000A0423AD0F8490C8040F2B2750EE0284680
:1052C000FFF7CAFF30B1B4F5B77F02D3A4F5B774C6
:1052D00002E006E0A4F26D14681C85B2B4F5B67F56
:1052E000EDD800BFED488580002516E0EB498888A1
:1052F000FFF7B2FF30B1012D04D11D2C01D31D3CAD
:1053000009E00CE0E648405DA04203D8E448405D77
:10531000241A00E003E0681C85B21C2CE6D200BF12
:10532000681CDE498871601CC871DA48B6FBF0F170
:1053300000FB11644FF46160B4FBF0F0D7490870D2
:105340004FF46160B4FBF0F100FB11403C21B0FB75
:10535000F1F0D24948704FF46160B4FBF0F100FB0A
:1053600011403C21B0FBF1F201FB1200CB498870E7
:105370000B46DA7999799888FFF734FFC7490872A4
:10538000002070BD2DE9F04F06460F469046994625
:10539000DDE909AB002440F2B270864203DB40F63F
:1053A0003300864202DD0120BDE8F08F40F2B27585
:1053B0000AE02846FFF750FF10B1BA48044401E064
:1053C000B9480444681C85B2B542F2DB781EC7B206
:1053D000002510E0B248405D40F2A321484304EBB1
:1053E000C0143046FFF738FF18B1012D01D1A9488C
:1053F0000444681C85B2BD42ECDBA8F1010040F218
:10540000A321484304EBC014C9EB4910C0EB0920A9
:1054100004EB0014CAEB0A1004EB80045C44A348BC
:10542000C06940F08050A149C8610846C06940F099
:105430000060C8619E48006840F480709C49086024
:1054400093481438006840F01000914914390860FE
:10545000A0B28F49091D0860200C091F08608C4804
:105460001438006820F0100089491439086000BF22
:1054700087481438006800F020000028F8D0FFF7B3
:1054800008FF002090E71CB581481838894908605A
:1054900047F6FF704860084607F06FF908B1012031
:1054A0001CBD0121834807F0C0FF45F2500188422E
:1054B00013D00020072111231B22CDE90010052164
:1054C00040F2E170FFF75EFF45F25002012179489A
:1054D00007F0A1FF78A01BF05DF87648006800682F
:1054E00040F001007349096808607248006800686C
:1054F00040F002006F490968086002220121032080
:1055000006F07CF8032006F0B7F8FFF7C2FE002093
:10551000C6E710B592B0044600BF6448C06940F0C9
:1055200080506249C8610846C06900F0805001900F
:1055300000BF00BF06F0B1F900BF5C48C06940F091
:1055400000605A49C8610846C06900F000600190D7
:1055500000BF00BF0420089000200F9001200B9096
:1055600008A806F01FFB012002900002039002A889
:1055700006F04EFF01205349086012B010BD1CB563
:105580004FF47840504908604448C079009043483F
:10559000837982884DA151481BF00CF84F481021A7
:1055A0000B46C822CDE900102B211420FFF766F826
:1055B0003A488078009039484378027848A14C48AE
:1055C0001AF0F8FF4A4810210B46C822CDE9001016
:1055D0003D211920FFF752F83048007A072852D2AF
:1055E000DFE800F0040F1A25303B460041A01021EF
:1055F0000B46C822CDE900104E212020FFF73EF8CF
:1056000041E03FA010210B46C822CDE900104E21F9
:105610002020FFF733F836E03CA010210B46C822CB
:10562000CDE900104E211A20FFF728F82BE03AA010
:1056300010210B46C822CDE900104E211420FFF79F
:105640001DF820E037A010210B46C822CDE900103C
:105650004E211420FFF712F815E035A010210B465B
:10566000C822CDE900104E212020FFF707F80AE0FC
:1056700032A010210B46C822CDE900104E21172080
:10568000FEF7FCFF00BF00BF1CBD00002E57020844
:10569000182800408051010026000020140400203A
:1056A0003A5702080085E2018033E1010010024010
:1056B00000700040000400204649525354205449D1
:1056C0004D450A003C0442420C000020252E326465
:1056D0002D252E32642D252E326400001E0400205C
:1056E000252E32643A252E32643A252E326400008B
:1056F0002800002053756E6461792020202000006E
:105700004D6F6E6461792020202000005475657310
:1057100064617920202000005765646E65736461C0
:10572000792000005468757273646179202000004C
:1057300046726964617920202020000053617475ED
:10574000726461792020000010B5FB480068406851
:1057500000F0010040B16FF00100F74909684860AE
:10576000FFF797FDFFF70BFFF3480068406800F074
:10577000010058B16FF00200EF4909684860FFF777
:1057800088FDFFF7FCFEEDA01AF004FF6FF00400A7
:10579000E9490968486010BD2DE9F04705460E4605
:1057A00017469846DDE9089A002340F2B270854218
:1057B00003DB40F63300854202DD0120BDE8F087BF
:1057C00040F2B2740AE02046FFF746FD10B1DE4811
:1057D000034401E0DD480344601C84B2AC42F2DBC8
:1057E000701EC6B2002410E0D948005D40F2A3212B
:1057F000484303EBC0132846FFF72EFD18B1012CD8
:1058000001D1D4480344601C84B2B442ECDB781E5E
:1058100040F2A321484303EBC013C8EB4810C0EB90
:10582000082003EB0013C9EB091003EB800353447A
:10583000C948C06940F08050C749C8610846C0697E
:1058400040F00060C861C548006840F48070C349FA
:105850000860C348006840F01000C149086098B271
:10586000BF4920310860180C091F0860BC48006857
:1058700020F01000BA49086000BFB948006800F085
:1058800020000028F9D0002098E700B587B04FF637
:10589000FF70FCF73EFA0020B2490860032005F0D3
:1058A000F8FEB1488088B1490880AF488079887097
:1058B000AD48C0790871AC4800784871AA48407872
:1058C0008871A9488078C871A748007AC870FFF726
:1058D00055F8A7A018210B46C822CDE900100021D9
:1058E0003220FEF7CBFE1A23F02219460020FEF7E5
:1058F000B6FC9D48C07900909B48807906909A48F4
:10590000808805900246AFF23C219D48069B1AF024
:1059100051FE9B4818210B46C822CDE900102B21CF
:105920003C20FEF7ABFE9048807800908E4840788F
:1059300006908D48007805900246AFF25C219148B0
:10594000069B1AF037FE8F4818210B46C822CDE976
:10595000001046214120FEF791FE8348007A072877
:1059600052D2DFE800F0040F1A25303B460086A033
:1059700018210B46C822CDE9001062213E20FEF717
:105980007DFE41E083A018210B46C822CDE900101E
:1059900062213E20FEF772FE36E081A018210B4600
:1059A000C822CDE9001062213E20FEF767FE2BE001
:1059B0007EA018210B46C822CDE9001062213E20AE
:1059C000FEF75CFE20E07CA018210B46C822CDE942
:1059D000001062213E20FEF751FE15E079A018214B
:1059E0000B46C822CDE9001062213E20FEF746FE9C
:1059F0000AE077A018210B46C822CDE900106221E9
:105A00003E20FEF73BFE00BF00BF01F087BA73489F
:105A100040680690002006998847704890F820005A
:105A200000F08000002801F062806C4880896C4999
:105A30000988884281F25B806848C08A6849498841
:105A40008842F7DA654880893A2817DD63488089FB
:105A5000642813DA6148C08A30280FDD5F48C08AA5
:105A60003D280BDA01205F49087000205E4908805C
:105A70000846008800F5FA603C490880574880894C
:105A800077281DDD554880898B2819DA5348C08A4C
:105A9000302815DD5148C08A3D2811DA02205149CD
:105AA00008705248006808B9012000E000204F4902
:105AB000086000204C490880084600782B4988700F
:105AC000464880899B281DDD44488089B12819DA21
:105AD0004248C08A302815DD4048C08A3D2811DA86
